:100000000C9462000C948A000C948A000C948A0070
:100010000C948A000C948A000C948A000C948A0038
:100020000C948A000C948A000C948A000C9492011F
:100030000C948A000C948A000C948A000C948A0018
:100040000C9448010C948A000C948A000C948A0049
:100050000C948A000C948A000C948A000C948A00F8
:100060000C948A000C948A000000000024002700F1
:100070002A000000000023002600290000000000E4
:10008000250028002B0004040404040404040202D4
:100090000202020203030303030301020408102007
:1000A0004080010204081020010204081020000012
:1000B0000008000201000003040700000000000027
:1000C0000000570311241FBECFEFD8E0DEBFCDBF25
:1000D00011E0A0E0B1E0E2EDF7E002C005900D9282
:1000E000A030B107D9F721E0A0E0B1E001C01D9236
:1000F000A433B207E1F710E0C2E6D0E004C02197D4
:10010000FE010E94E103C136D107C9F70E944E02E9
:100110000C94E7030C9400008F929F92AF92BF92D1
:10012000FF920F931F93CF93DF93F09031012BE059
:100130002F1508F44CC02091330108E512E0021B92
:10014000110927FD1395000F111F000F111F20919A
:100150003201C8E8D0E0C21BD10927FDD395CC0FEE
:10016000DD1FCC0FDD1F4E010D2E000CAA08BB08B1
:100170009801012E000C440B550B281939094A0926
:100180005B09DC010E949C0324EB30E040E050E07E
:100190000E947203820E931EA41EB51E8C169D062D
:1001A0002CF0E801801691060CF4E4012297CC0FA4
:1001B000DD1F2FB7F8948F2D90E0FC01EE0FFF1F8D
:1001C000E80FF91FE35FFE4FD283C1832FBFDF919A
:1001D000CF911F910F91FF90BF90AF909F908F9004
:1001E0000895833081F028F4813099F08230A9F0AD
:1001F00008958730A9F08830C9F08430B1F4809137
:1002000080008F7D03C0809180008F778093800075
:10021000089584B58F7784BD089584B58F7DFBCF15
:100220008091B0008F778093B00008958091B000E6
:100230008F7DF9CF1F93CF93DF93282F30E0F90103
:10024000E255FF4F8491F901E656FF4FD491F90131
:10025000EA57FF4FC491CC23A9F0162F81110E94B9
:10026000F100EC2FF0E0EE0FFF1FE458FF4FA591D7
:10027000B4918FB7F894EC91111108C0D095DE239A
:10028000DC938FBFDF91CF911F910895DE2BF8CFC4
:100290001F920F920FB60F9211242F933F938F93BB
:1002A0009F93AF93BF938091090190910A01A09110
:1002B0000B01B0910C013091080123E0230F2D3781
:1002C00058F50196A11DB11D2093080180930901E5
:1002D00090930A01A0930B01B0930C01809104014B
:1002E00090910501A0910601B09107010196A11D11
:1002F000B11D8093040190930501A0930601B09372
:100300000701BF91AF919F918F913F912F910F90D6
:100310000FBE0F901F90189526E8230F0296A11D7F
:10032000B11DD2CF1F920F920FB60F9211242F93AF
:100330003F934F935F936F937F938F939F93AF936D
:10034000BF93CF93DF93EF93FF9380910101C0910F
:100350000001D0E087FF24C0109285001092840035
:10036000809101018F5F8093010180910101082E2E
:10037000000C990B8C179D0724F4809101018C309F
:10038000C4F18091840090918500049680349C494A
:1003900008F47AC08091840090918500049676C01C
:1003A00080910101082E000C990B8C179D07C4F653
:1003B000E09101018E2FEE0F990BFC01EE0FFF1F54
:1003C000E80FF91FE35FFE4F808186FFC9CFE09100
:1003D00001018E2FEE0F990BFC01EE0FFF1FE80FAE
:1003E000F91FE35FFE4F808160E08F730E941A0166
:1003F000B7CF2091840030918500E09101018E2FCC
:10040000EE0F990BFC01EE0FFF1FE80FF91FE35FE2
:10041000FE4F81819281820F931F90938900809378
:100420008800E09101018E2FEE0F990BFC01EE0F79
:10043000FF1FE80FF91FE35FFE4F808186FF11C0A9
:10044000E09101018E2FEE0F990BFC01EE0FFF1FC3
:10045000E80FF91FE35FFE4F808161E08F730E9418
:100460001A01FF91EF91DF91CF91BF91AF919F91D1
:100470008F917F916F915F914F913F912F910F904D
:100480000FBE0F901F90189580E49CE9909389000F
:10049000809388008FEF80930101E3CF789484B537
:1004A000826084BD84B5816084BD85B5826085BD70
:1004B00085B5816085BD80916E00816080936E00FE
:1004C00010928100809181008260809381008091F0
:1004D00081008160809381008091800081608093A1
:1004E00080008091B10084608093B1008091B00061
:1004F00081608093B00080917A00846080937A005C
:1005000080917A00826080937A0080917A00816085
:1005100080937A0080917A00806880937A001092AC
:10052000C100809131018C3008F068C0E5EAF0E04C
:100530002491E1E9F0E08491882399F090E0880F1C
:10054000991FFC01E859FF4FA591B491FC01E458B3
:10055000FF4F859194918FB7F894EC91E22BEC9337
:100560008FBF80913101282F30E0F901EE0FFF1F7E
:10057000E20FF31FE35FFE4F9081907C9B609083BE
:1005800010923201109233012CE0622F0E94D503A9
:10059000829FB001112430E020E0AB01420F531FD5
:1005A000FA01EE0FFF1FE40FF51FE35FFE4F90818E
:1005B00096FD16C02F5F3F4F2C30310571F781112A
:1005C0000FC01092800082E080938100109285001D
:1005D00010928400B19A80916F00826080936F00C6
:1005E000E09131018E2F90E0FC01EE0FFF1FE80F2C
:1005F000F91FE35FFE4F808180648083C6EAD0E00C
:10060000FE01249102E910E0F80184918823C9F0E9
:1006100090E0880F991FFC01E859FF4FA591B49114
:10062000FC01E458FF4F459154913FB7F8949C91D9
:10063000822F809598239C93FA019081892380834F
:100640003FBF9AEBE92E90E0F92E20E0C22E20E089
:10065000D22EAA24A394B12CF7018491FE01949088
:10066000F801849081100EC01092030110920201D3
:1006700090E080E00E948C00C114D10469F30E94D4
:100680000000EACF81110E94F100E82DF0E0EE0FAA
:10069000FF1FEE58FF4FA591B4918C91982221F342
:1006A000B0920301A09202018AE590E0E3CF80912D
:1006B00000018C3098F491E0980F909300018093A2
:1006C000310190E0FC01EE0FFF1FE80FF91FE35F1F
:1006D000FE4F88EB9BE09283818308958FEF809398
:1006E00031010895052E97FB1EF400940E948903A2
:1006F00057FD07D00E94A40307FC03D04EF40C94CE
:10070000890350954095309521953F4F4F4F5F4F4E
:10071000089590958095709561957F4F8F4F9F4F6D
:1007200008950E94C603A59F900DB49F900DA49FAD
:10073000800D911D11240895B7FF0C9491030E9420
:100740009103821B930B0895A1E21A2EAA1BBB1BD7
:10075000FD010DC0AA1FBB1FEE1FFF1FA217B3078D
:10076000E407F50720F0A21BB30BE40BF50B661FA3
:10077000771F881F991F1A9469F760957095809567
:1007800090959B01AC01BD01CF010895A29FB001DE
:10079000B39FC001A39F700D811D1124911DB29FB5
:1007A000700D811D1124911D0895991B79E004C0DD
:1007B000991F961708F0961B881F7A95C9F78095A0
:1007C0000895EE0FFF1F0590F491E02D0994F89421
:0207D000FFCF59
:00000001FF
